:020000040000FA
:04000000A0EF3FF03E
:020004000000FA
:087F3800000000000000000041
:107F4000700ED36E240EAC6E090EAF6E900EAB6E3B
:107F500046D8C10853E1410EAD6E4B0EAD6E006ABE
:107F60003ED8F86E076E3BD8F76EA96E38D8F66E1D
:107F7000A86E35D8016E012A00EE09F0F56E2FD8F3
:107F8000EC6E012EFBD700661FD007AC03D0040EA9
:107F90001ED818D007AE04D00C00C40E18D812D0CA
:107FA000940E15D80A00020E056E00EE0AF0200E9F
:107FB000066EEE50F56E0F00062EFBD7840E07D826
:107FC000052EF5D7A694C9D74E0EAD6EC8D7A66EAE
:107FD000550EA76EAA0EA76EA682000012000A0E0A
:107FE000026E036A046A9EAA03D0AE5000261200F5
:107FF000042EF9D7032EF6D7022EF3D7AB9E9CD7CB
:020000040030CA
:0100010002FC
:010002001AE3
:010003000EEE
:010005008179
:010006008178
:00000001FF
